:100000000C94EC020C9414030C9414030C9414033D
:100010000C9414030C9414030C9414030C94140304
:100020000C9414030C9414030C9414030C941403F4
:100030000C9414030C9414030C9414030C941403E4
:100040000C94B5160C9414030C9464190C94961922
:100050000C9414030C9414030C9414030C941403C4
:100060000C9414030C94140300C001C001C003E0FD
:10007000F3E0FEF87EFF339F1FFC0D701BA03FE0F6
:100080003FF07CF07070003000000000003E5B4FDD
:100090005B3E3E6B4F6B3E1C3E7C3E1C183C7E3CE8
:1000A000181C577D571C1C5E7F5E1C00183C1800F6
:1000B000FFE7C3E7FF0018241800FFE7DBE7FF3086
:1000C000483A060E2629792926407F050507407FF4
:1000D00005253F5A3CE73C5A7F3E1C1C08081C1C67
:1000E0003E7F14227F22145F5F005F5F06097F015D
:1000F0007F006689956A606060606094A2FFA29448
:1001000008047E040810207E201008082A1C080815
:100110001C2A08081E101010100C1E0C1E0C303863
:100120003E3830060E3E0E06000000000000005F64
:1001300000000007000700147F147F14242A7F2A80
:100140001223130864623649562050000807030042
:10015000001C2241000041221C002A1C7F1C2A088E
:10016000083E0808008070300008080808080000F1
:1001700060600020100804023E5149453E00427F65
:10018000400072494949462141494D331814127FB4
:100190001027454545393C4A494931412111090754
:1001A0003649494936464949291E000014000000D5
:1001B00040340000000814224114141414140041A7
:1001C00022140802015909063E415D594E7C121164
:1001D000127C7F494949363E414141227F4141419C
:1001E0003E7F494949417F090909013E4141517317
:1001F0007F0808087F00417F41002040413F017F88
:10020000081422417F404040407F021C027F7F044F
:1002100008107F3E4141413E7F090909063E415198
:10022000215E7F09192946264949493203017F0188
:10023000033F4040403F1F2040201F3F4038403F89
:10024000631408146303047804036159494D43009F
:100250007F4141410204081020004141417F0402D6
:10026000010204404040404000030708002054546D
:1002700078407F284444383844444428384444284B
:100280007F385454541800087E090218A4A49C789E
:100290007F0804047800447D40002040403D007FFA
:1002A0001028440000417F40007C047804787C08DA
:1002B0000404783844444438FC18242418182424AE
:1002C00018FC7C08040408485454542404043F4493
:1002D000243C4040207C1C2040201C3C4030403CC2
:1002E00044281028444C9090907C4464544C440022
:1002F0000836410000007700000041360800020186
:100300000204023C2623263C1EA1A161123A404071
:10031000207A3854545559215555794122545478EE
:1003200042215554784020545579400C1E52721287
:100330003955555559395454545939555454580010
:1003400000457C410002457D420001457C407D1214
:1003500011127DF0282528F07C5455450020545476
:100360007C547C0A097F4932494949323A44444421
:100370003A324A4848303A4141217A3A424020785C
:10038000009DA0A07D3D4242423D3D4040403D3C5D
:1003900024FF2424487E4943662B2FFC2F2BFF0982
:1003A00029F620C0887E0903205454794100004476
:1003B0007D413048484A32384040227A007A0A0A61
:1003C000727D0D19317D2629292F282629292926D4
:1003D00030484D4020380808080808080808382F19
:1003E00010C8ACBA2F102834FA00007B00000814A3
:1003F0002A142222142A1408AA005500AAAA55AACF
:1004000055AA000000FF00101010FF00141414FF84
:10041000001010FF00FF1010F010F0141414FC0076
:100420001414F700FF0000FF00FF1414F404FC1480
:100430001417101F10101F101F1414141F00101079
:1004400010F0000000001F101010101F10101010EE
:10045000F010000000FF101010101010101010FF0E
:1004600010000000FF140000FF00FF00001F101725
:100470000000FC04F414141710171414F404F4000E
:1004800000FF00F714141414141414F700F71414D4
:1004900014171410101F101F141414F4141010F05B
:1004A00010F000001F101F0000001F14000000FCCF
:1004B000140000F010F01010FF10FF141414FF14BB
:1004C0001010101F00000000F010FFFFFFFFFFF0F2
:1004D000F0F0F0F0FFFFFF0000000000FFFF0F0F43
:1004E0000F0F0F3844443844FC4A4A4A347E020213
:1004F0000606027E027E0263554941633844443C4D
:1005000004407E201E2006027E020299A5E7A599DE
:100510001C2A492A1C4C7201724C304A4D4D303015
:1005200048784830BC625A463D3E494949007E0100
:1005300001017E2A2A2A2A2A44445F444440514A1F
:10054000444040444A51400000FF0103E080FF0066
:100550000008086B6B083612362436060F090F06A2
:10056000000018180000001010003040FF010100CA
:100570001F01011E00191D1712003C3C3C3C0000ED
:100580000000000000000800020100000304070052
:10059000000000000000000102040810204080015B
:1005A00002040810200102040810200404040404BA
:1005B0000404040202020202020303030303030011
:1005C000000000250028002B000000000024002768
:1005D000002A00007408C61911241FBECFEFD8E00E
:1005E000DEBFCDBF13E0A0E0B1E0E8EFFEE302C064
:1005F00005900D92AC37B107D9F724E0ACE7B3E032
:1006000001C01D92A634B207E1F715E0C8EDD5E0B0
:1006100004C02297FE010E94FD1EC43DD107C9F708
:100620000E940A1A0C947A1F0C9400000895CF932C
:10063000DF93CDB7DEB7A2970FB6F894DEBF0FBE3B
:10064000CDBF462E242E8AE992E00E94631C8E01C3
:100650000F5F1F4F09A31AA3CE01809698A38F8F17
:10066000FE0133964F014E975C018DE793E00E94A7
:100670007114BC01882777FD8095982F0E946B1C10
:10068000F8016083F501108265E070E080E090E0A1
:100690000E946B1C762E7394F40170826CEF72E0F2
:1006A00089EA93E00E94571A4AE050E0F80160811D
:1006B00089EA93E00E94361B60E073E089EA93E0E8
:1006C0000E94571A4AE050E0F501608189EA93E000
:1006D0000E94361B65E073E089EA93E00E94571A96
:1006E0004AE050E0672D89EA93E00E943D1B0D5FD0
:1006F0001F4FF3E0AF0EB11C83E0880E911CEF8D0D
:10070000F8A1AE16BF0609F0B0CFB12C312C512C98
:1007100099E09B15F0F08B2D90E0FC01EE0FFF1F90
:10072000E80FF91F81E090E08C0F9D1FE80FF91F83
:10073000418150E0608170E0CC24C394D12C7101E0
:10074000820128E630E08DE793E00E948312B394A3
:10075000DFCF8DE793E00E94981568EC70E080E0B1
:1007600090E00E942217FE0133963F0189A09AA0D3
:10077000CE0102965C01F501408150E0F4016081F8
:1007800070E0C12CD12C7101820128E630E08DE7A8
:1007900093E00E948312F3011081F5018081180F0C
:1007A00010838DE793E00E947514212F30E08217AB
:1007B0009307C4F48DE793E00E947114BC0188276D
:1007C00077FD8095982F0E946B1CF4016083F501E2
:1007D000108265E070E080E090E00E946B1C6F5F2B
:1007E000F3016083F3E0AF0EB11C83E0880E911C2F
:1007F00093E0690E711CEF8DF8A1AE16BF0609F0EB
:10080000BACFB12C88CFCF9361E08DE793E00E94FF
:100810004A1461E070E08DE793E00E94501440E0DC
:1008200050E060E070E08DE793E00E944414C0E087
:10083000CA3059F0E0917D03F0917E030190F08180
:10084000E02D6C2F8DE793E00995CF5FC83A81F7D3
:100850008DE793E0CF910C9498150F931F93CF934E
:10086000DF93C0E0D0E08DE793E00E947514C817D5
:10087000D90724F58DE793E00E9475148C018DE76C
:1008800093E00E947114A80117FF02C04F5F5F4FF1
:1008900055954795BC0197FF02C06F5F7F4F7595D7
:1008A000679501E010E09E018DE793E00E94E90B5F
:1008B0008DE793E00E9498152296D5CFDF91CF91D6
:1008C0001F910F9108959F92AF92BF92CF92DF92A6
:1008D000EF92FF920F931F93CF93DF93C12CD12CF4
:1008E000C0E0D0E0992493948DE793E00E947514C2
:1008F00097FD019695958795C817D90744F5E0911E
:100900007D03F0917E03A684B7848DE793E00E9477
:1009100075148C010C0D1D1D8DE793E00E94711460
:1009200090FAEE24E0F89C012C0D3D1DF12CAE0157
:10093000BE018DE793E0F50109958DE793E00E94F4
:10094000981593942396F6E0CF1AD108CDCFDF9176
:10095000CF911F910F91FF90EF90DF90CF90BF90BC
:10096000AF909F9008956F927F928F929F92AF92D7
:10097000BF92CF92DF92EF92FF920F931F93CF938C
:10098000DF93C0E0D0E08DE793E00E9471148C010A
:100990008DE793E00E947514081719072CF48DE772
:1009A00093E00E94711404C08DE793E00E947514D7
:1009B00097FD019695958795C817D9070CF04FC0FC
:1009C0008DE793E00E94751497FD01966C01D59414
:1009D000C794CC0EDD1E8DE793E00E94711497FD45
:1009E00001967C01F594E794EC0EFD1E8DE793E0F3
:1009F0000E94751497FD01968C01159507950C0FB3
:100A00001D1F8DE793E00E94711497FD01964C0124
:100A1000959487948C1A9D0A8DE793E00E94751433
:100A200097FD01963C01759467946C1A7D0A8DE7D9
:100A300093E00E94711497FD0196BC01759567952E
:100A4000AA24A394B12C9401A3018DE793E00E9402
:100A500041108DE793E00E949815259694CFDF9181
:100A6000CF911F910F91FF90EF90DF90CF90BF90AB
:100A7000AF909F908F907F906F9008954F925F926C
:100A80006F927F928F929F92AF92BF92CF92DF929E
:100A9000EF92FF920F931F93CF93DF938DE793E035
:100AA0000E947114EC018DE793E00E947514C81741
:100AB000D9072CF48DE793E00E94711404C08DE7F0
:100AC00093E00E94751497FD0196EC01D595C795AA
:100AD00055245394442443941C161D060CF04FC017
:100AE0008DE793E00E94751497FD01966C01D594F3
:100AF000C794CC0EDD1E8DE793E00E94711497FD24
:100B000001967C01F594E794EC0EFD1E8DE793E0D1
:100B10000E94751497FD01968C01159507950C0F91
:100B20001D1F8DE793E00E94711497FD01964C0103
:100B3000959487948C1A9D0A8DE793E00E94751412
:100B400097FD01963C01759467946C1A7D0A8DE7B8
:100B500093E00E947114A52CB12C97FD0196BC0165
:100B6000759567959401A3018DE793E00E949C1011
:100B700054248DE793E00E9498152597ADCFDF911F
:100B8000CF911F910F91FF90EF90DF90CF90BF908A
:100B9000AF909F908F907F906F905F904F9008954F
:100BA000AF92BF92CF92DF92EF92FF920F931F937B
:100BB000CF93DF93A12CB12CC0E0D0E08DE793E080
:100BC0000E94751497FD0196959587950297C81711
:100BD000D9077CF58DE793E00E9475146C018DE7D1
:100BE00093E00E9475148C010A0D1B1D8DE793E0A4
:100BF0000E9471147601D7FE03C023E0E20EF11CBF
:100C0000F594E794F594E7949C012A0D3B1DCC24C0
:100C1000C394D12CAE01BE018DE793E00E94110F69
:100C20008DE793E00E949815229684E0A81AB108F7
:100C3000C5CFDF91CF911F910F91FF90EF90DF9083
:100C4000CF90BF90AF9008956F927F928F929F92B6
:100C5000AF92BF92CF92DF92EF92FF920F931F93CA
:100C6000CF93DF93A12CB12CC0E0D0E099249394D2
:100C7000882483948DE793E00E94751497FD019674
:100C8000959587950297C817D9077CF58DE793E06E
:100C90000E9475143C018DE793E00E9475148C014D
:100CA0000A0D1B1D8DE793E00E947114C92CD12CF5
:100CB000730177FE03C023E0E20EF11CF594E79484
:100CC000F594E7949C012A0D3B1DAE01BE018DE712
:100CD00093E00E94CF0F98248DE793E00E9498152F
:100CE000229684E0A81AB108C5CFDF91CF911F9159
:100CF0000F91FF90EF90DF90CF90BF90AF909F90BB
:100D00008F907F906F900895AF92BF92CF92DF92B5
:100D1000EF92FF920F931F93CF93DF93C12CD12CAF
:100D2000C0E0D0E08DE793E00E94751497FD019636
:100D300095958795C817D90734F5E0917D03F09113
:100D40007E03A484B5848DE793E00E9475148C0122
:100D50000C0D1D1D8DE793E00E9471149C012C0D5C
:100D60003D1DEE24E394F12CAE01BE018DE793E02E
:100D7000F50109958DE793E00E9498152296F4E01D
:100D8000CF1AD108CFCFDF91CF911F910F91FF9054
:100D9000EF90DF90CF90BF90AF900895AF92BF9249
:100DA000CF92DF92EF92FF920F931F93CF93DF9337
:100DB000C0E0D0E08DE793E00E947114C817D90716
:100DC000FCF4E0917D03F0917E03C680D7808DE72F
:100DD00093E00E9475148C0101501109EE24E394F4
:100DE000F12C9E0140E050E060E070E08DE793E080
:100DF000F60109958DE793E00E9498152496DACFC5
:100E0000C0E0D0E08DE793E00E947514C817D907C1
:100E1000FCF4E0917D03F0917E03C680D7808DE7DE
:100E200093E00E9471149C0121503109EE24E39457
:100E3000F12C8E0140E050E060E070E08DE793E03F
:100E4000F60109958DE793E00E9498152496DACF74
:100E50006AEF70E080E090E00E9422178DE793E057
:100E60000E946B16C0E0D0E08DE793E00E94711401
:100E7000C817D907FCF4E0917D03F0917E03C6808A
:100E8000D7808DE793E00E947514AC014150510961
:100E9000EE24E394F12C00E010E09E0160E070E0AD
:100EA0008DE793E0F60109958DE793E00E94981590
:100EB0002496DACF8DE793E00E947514AA24AA94B1
:100EC000A80EC0E0D0E093E0B92EB80E8C2F880FAA
:100ED000880F0A2D081B21968C2F880F880FFB2D59
:100EE000F81BF7FD26C0E0917D03F0917E03C680DC
:100EF000D7808DE793E00E9471147C018DE793E029
:100F00000E947514112707FD109597012150310992
:100F1000AC0141505109EE24E394F12C60E070E003
:100F20008DE793E0F60109958DE793E00E9498150F
:100F3000CDCF6AEF70E080E090E00E9422178DE74D
:100F400093E00E946B168DE793E00E947114EC0110
:100F50002197D7FD25C0E0917D03F0917E03C680E7
:100F6000D7808DE793E00E9475148C018DE793E0A4
:100F70000E947114A80141505109BC0161507109CE
:100F8000EE24E394F12C00E010E09E018DE793E065
:100F9000F60109958DE793E00E9498152497D9CF23
:100FA0008DE793E00E947514EC012197D7FD25C0D1
:100FB000E0917D03F0917E03C680D7808DE793E0BA
:100FC0000E9475148C018DE793E00E947114A801B2
:100FD00041505109BC0161507109EE24E394F12C98
:100FE0008E0120E030E08DE793E0F60109958DE772
:100FF00093E00E9498152497D9CF6AEF70E080E0C3
:1010000090E00E9422178DE793E00E946B16C0E0EB
:10101000D0E08DE793E00E947514C817D907FCF45F
:10102000E0917D03F0917E03C680D7808DE793E049
:101030000E947114BC0161507109EE24E394F12CFB
:101040008E0120E030E040E050E08DE793E0F601D3
:1010500009958DE793E00E9498152496DACFC0E0B9
:10106000D0E08DE793E00E947114C817D90724F5EA
:10107000E0917D03F0917E03C680D7808DE793E0F9
:101080000E9475148C018DE793E00E947114015049
:101090001109BC0161507109EE24E394F12C9E0109
:1010A00040E050E08DE793E0F60109958DE793E08D
:1010B0000E9498152496D5CF6AEF70E080E090E00A
:1010C000DF91CF911F910F91FF90EF90DF90CF9024
:1010D000BF90AF900C94221761E08DE00E94AE1794
:1010E00060E08DE00C94E717EF920F9363E0E62E3B
:1010F00004E025E046E067E08DE793E00E94E51418
:101100000F91EF90089526E040E855E260E070E02E
:1011100089EA93E00E94021944E068E28DE793E0D7
:101120000E94DE150E946C086EE18DE793E00E943C
:1011300081158DE793E00E94981560ED77E080E0DF
:1011400090E00E9422178DE793E00E946B1621E049
:1011500030E04AE050E06AE070E08DE793E00E9402
:1011600079148DE793E00E94981560ED77E080E0B8
:1011700090E00E9422178DE793E00E946B160E9478
:10118000CE068DE793E00E94981560ED77E080E051
:1011900090E00E9422178DE793E00E946B160E9458
:1011A00084068DE793E00E94981560ED77E080E07B
:1011B00090E00E9422178DE793E00E946B160E9438
:1011C00063048DE793E00E94981560ED77E080E07E
:1011D00090E00E9422178DE793E00E946B160E9418
:1011E0002D048DE793E00E94981560ED77E080E094
:1011F00090E00E9422178DE793E00E946B168DE726
:1012000093E00E947514D82FC92F8DE793E00E94B8
:1012100071144D2F5C2F57FF02C04F5F5F4F5595E4
:101220004795BC0197FF02C06F5F7F4F759567952B
:1012300001E010E02AE030E08DE793E00E94D90E53
:101240008DE793E00E94981560ED77E080E090E0F4
:101250000E9422178DE793E00E946B160E94D00532
:1012600060ED77E080E090E00E9422178DE793E048
:101270000E946B160E94240660ED77E080E090E00B
:101280000E9422178DE793E00E946B160E94B30420
:1012900060ED77E080E090E00E9422178DE793E018
:1012A0000E946B160E943E0560ED77E080E090E0C2
:1012B0000E9422178DE793E00E946B160E940304A0
:1012C0008DE793E00E94981560ED77E080E090E074
:1012D0000E9422178DE793E00E946B1661E08DE774
:1012E00093E00E944A1461E070E08DE793E00E9471
:1012F000501440E050E060E070E08DE793E00E9421
:1013000044146BE073E08DE793E00E94741A41E0AF
:1013100050E060E070E08DE793E00E94561422E018
:1013200030E048ED5FE069E470E48DE793E00E940F
:10133000511C62E08DE793E00E944A1461E070E086
:101340008DE793E00E94501469E173E08DE793E02C
:101350000E94571A20E130E04FEE5EEB6DEA7EED21
:101360008DE793E00E94541B8DE793E00E9498154F
:1013700060ED77E080E090E00E9422178DE793E037
:101380000E946B1661E08DE793E00E945C1461E0BF
:101390008DE793E00E944A1461E070E08DE793E0EE
:1013A0000E94501440E050E060E070E08DE793E070
:1013B0000E9444146CE173E08DE793E00E94741A7C
:1013C00062E08DE793E00E944A1465E273E08DE7E6
:1013D00093E00E94741A8DE793E00E94981560EDE7
:1013E00077E080E090E00E94221760E08DE793E0D4
:1013F0000E945C148DE793E00E946B16CC24C3948A
:10140000D12CA0E1EA2EF12C00E110E028E630E03A
:1014100040E150E06EE170E08DE793E00E948312BE
:101420008DE793E00E949815E0917D03F0917E0393
:101430000288F389E02D61E08DE793E0099568EE7D
:1014400073E080E090E00E942217E0917D03F0912C
:101450007E030288F389E02D60E08DE793E0099533
:1014600068EE73E080E090E00E94221740E160E1C6
:1014700088E690E00E9417038CE793E00C948308C1
:101480008CE793E00C9416032F923F924F925F9259
:101490006F927F928F929F92AF92BF92CF92DF9284
:1014A000EF92FF920F931F93CF93DF9300D000D062
:1014B000CDB7DEB74C017C836B836A015901C8014B
:1014C0008701AC014C195D0957FF03C05195419547
:1014D000510995016B817C81261B370B37FF03C0B7
:1014E00031952195310922242394312C2417350775
:1014F00014F0212C312C2114310459F03A2D2B2DCC
:101500005C01832F922F3B812C81DC82CB82C32E06
:10151000D22EAB81BC81AA16BB065CF43C2D2D2DCE
:101520006C01832F922F3B812C81BC82AB82A32E36
:10153000B22E2501EB81FC814E1A5F0A3C016C182A
:101540007D0877FE03C0719461947108720157FEA3
:1015500003C0FFEFEF1AFF0AF594E794C816D90607
:101560002CF421E030E03A83298324C06FEF7FEF31
:101570007A8369831FC0D401ED91FC910480F581C9
:10158000E02D980121143104D9F04B815C81B60122
:10159000C4010995E618F708F7FE06C0E981FA814B
:1015A000CE0EDF1EE40CF51C2B813C812F5F3F4FDC
:1015B0003C832B836B817C81A616B706E4F604C0BE
:1015C000A6016B817C81E4CF0F900F900F900F905C
:1015D000DF91CF911F910F91FF90EF90DF90CF900F
:1015E000BF90AF909F908F907F906F905F904F9043
:1015F0003F902F9008956F927F928F929F92AF921B
:10160000BF92CF92DF92EF92FF920F931F93CF93EF
:10161000DF93EC015B016A0139014801E881F9813E
:101620000284F385E02D87010995E881F981A601FF
:10163000480D591D415051090284F385E02D930155
:10164000B501CE010995E881F9810084F185E02D8D
:101650009401A601B501CE010995E881F981B50192
:10166000660D771D615071090084F185E02D9401AC
:10167000A601CE010995DF91CF911F910F91FF90A7
:10168000EF90DF90CF90BF90AF909F908F907F9022
:101690006F900895EF92FF920F931F93DC01ED91ED
:1016A000FC91240F351F215031090680F781E02D70
:1016B000780189019B0109951F910F91FF90EF908F
:1016C0000895EF92FF920F931F93DC01ED91FC912F
:1016D000260F371F215031090680F781E02D780150
:1016E0008A0109951F910F91FF90EF9008956F92D5
:1016F0007F928F929F92AF92BF92CF92DF92EF92A2
:10170000FF920F931F93CF93DF935C014A0169010E
:101710003801EB01C60ED71ECC15DD0574F4D501DA
:10172000ED91FC910084F185E02D87019301A401E6
:10173000BE01C50109952196EFCFDF91CF911F9191
:101740000F91FF90EF90DF90CF90BF90AF909F9060
:101750008F907F906F900895EF92FF920F931F9359
:10176000DC01ED91FC9111971A960D911C911B973C
:1017700018962D913C9119970684F785E02D7B01F1
:1017800040E050E060E070E009951F910F91FF90FC
:10179000EF9008950895FC011382128282E393E092
:1017A00091838083758364835783468371876087C1
:1017B00053874287158A158614861786168621E078
:1017C000248B8FEF9FEF938B828B918B808B268B5B
:1017D00008952F923F924F925F926F927F928F92D5
:1017E0009F92AF92BF92CF92DF92EF92FF920F93B0
:1017F0001F93CF93DF9300D000D000D0CDB7DEB7DA
:101800009E838D836B015A01790166246394712C48
:10181000621A730A44245524421A530A440C551C74
:10182000DC01ED91FC91420F531F0480F581E02D06
:1018300098010995AD81BE81ED91FC911197A501AB
:101840004E195F090480F581E02D9801B601CD01A4
:101850000995AD81BE81ED91FC911197B6016E0D98
:101860007F1D0480F581E02D9801A501CD0109952A
:10187000AD81BE81ED91FC911197B6016E197F0982
:101880000480F581E02D9801A501CD010995812CF9
:10189000912C8E149F040CF0A1C077FC08C0B1E01D
:1018A000EB1AF108E2E04E0E511C640C751CFFEFC0
:1018B0008F1A9F0AC401880F991F0196680E791E1E
:1018C000C4018C0D9D1D9C838B83AD81BE81ED91E8
:1018D000FC9111970480F581E02D980115012E0CE3
:1018E0003F1CA101BC01CD010995F601E819F909D8
:1018F000FA83E983AD81BE81ED91FC91119704805B
:10190000F581E02D9801A10169817A81CD010995C8
:10191000AD81BE81ED91FC9111970480F581E02DA0
:10192000980115012E183F08A1016B817C81CD0122
:101930000995AD81BE81ED91FC9111970480F581EF
:10194000E02D9801A10169817A81CD0109951401E9
:101950002A0C3B1CAD81BE81ED91FC911197048056
:10196000F581E02D9801A101C6018E0D9F1D9C837C
:101970008B83BC01CD010995AD81BE81ED91FC91B8
:1019800011970480F581E02D9801A101C6018E19FF
:101990009F099A838983BC01CD01099515012818F7
:1019A0003908AD81BE81ED91FC9111970480F581DC
:1019B000E02D9801A1016B817C81CD010995AD815C
:1019C000BE81ED91FC9111970480F581E02D980185
:1019D000A10169817A81CD0109955BCF26960FB669
:1019E000F894DEBF0FBECDBFDF91CF911F910F9155
:1019F000FF90EF90DF90CF90BF90AF909F908F902F
:101A00007F906F905F904F903F902F9008952F920E
:101A10003F924F925F926F927F928F929F92AF927E
:101A2000BF92CF92DF92EF92FF920F931F93CF93CB
:101A3000DF9300D000D000D0CDB7DEB79E838D837A
:101A40004B013A016901802F44244394512C421ADE
:101A5000530A22243324221A330A220C331CAA24C8
:101A6000A394B12C01E010E0982F94709983A82FD3
:101A7000A270AA83B82FB870BB8381708C83C50114
:101A800001978C159D050CF0A6C057FC08C0E1E03D
:101A9000CE1AD108F2E02F0E311C420C531C0E5FFF
:101AA0001F4F400E511E8981882311F1AD81BE81E7
:101AB000ED91FC9111970480F581E02D9701A30130
:101AC0004C0D5D1DB501680D791DCD010995AD81E8
:101AD000BE81ED91FC9111970480F581E02D970175
:101AE000A501460D571DB4016C0D7D1DCD01099555
:101AF000BA81BB2311F1AD81BE81ED91FC911197AB
:101B00000480F581E02D9701A3014C195D09B50111
:101B1000680D791DCD010995AD81BE81ED91FC91D6
:101B200011970480F581E02D9701A3014A195B0903
:101B3000B4016C0D7D1DCD010995BB81BB2311F155
:101B4000AD81BE81ED91FC9111970480F581E02D6E
:101B50009701A501460D571DB4016C197D09CD01F2
:101B60000995AD81BE81ED91FC9111970480F581BD
:101B7000E02D9701A3014C0D5D1DB4016A197B098D
:101B8000CD010995BC81BB2311F1AD81BE81ED91E1
:101B9000FC9111970480F581E02D9701A3014A196A
:101BA0005B09B4016C197D09CD010995AD81BE8138
:101BB000ED91FC9111970480F581E02D9701A3012F
:101BC0004C195D09B4016A197B09CD010995BFEF74
:101BD000AB1ABB0A54CF26960FB6F894DEBF0FBEE1
:101BE000CDBFDF91CF911F910F91FF90EF90DF90CC
:101BF000CF90BF90AF909F908F907F906F905F90AD
:101C00004F903F902F9008952F923F924F925F9266
:101C10006F927F928F929F92AF92BF92CF92DF92FC
:101C2000EF92FF920F931F93CF93DF93CDB7DEB761
:101C300028970FB6F894DEBF0FBECDBF5C011B0125
:101C40005A83498338872F83FC82EB8288248394CC
:101C5000912C821A930A3901719461947108660C6F
:101C6000771C270123E0420E511CEE24E394F12C53
:101C7000302F31703D8302700E83C7010197EF81D1
:101C8000F8858E179F070CF07BC097FC0AC08F81E8
:101C90009885019798878F8392E0690E711C860C56
:101CA000971CC201AB81BC818A1B9B0B880E991EBD
:101CB000BD81BB2369F1D501ED91FC912F81388560
:101CC000220F331F2F5F3F4F8B819C81280F391FBD
:101CD0000084F185E02D860149815A81AF81B88564
:101CE0004A1B5B0BB701620D731DC5010995D50138
:101CF000ED91FC910084F185E02D920149815A819A
:101D00004E195F096F817885620D731DC5010995B4
:101D1000BE81BB2371F1D501ED91FC912F813885F6
:101D2000220F331F2F5F3F4F8B819C81280F391F5C
:101D30000084F185E02D860149815A81AF81B88503
:101D40004A1B5B0BB1016E197F09C5010995D501CD
:101D5000ED91FC910084F185E02D920149815A8139
:101D60004E195F09B1018F819885681B790BC501F8
:101D700009959FEFE91AF90AA2E04A0E511C7DCF9E
:101D800028960FB6F894DEBF0FBECDBFDF91CF917E
:101D90001F910F91FF90EF90DF90CF90BF90AF9089
:101DA0009F908F907F906F905F904F903F902F907B
:101DB00008956F927F928F929F92AF92BF92CF922F
:101DC000DF92EF92FF920F931F93CF93DF93EC017B
:101DD0004B013A0159016801E881F981220F331F53
:101DE0002F5F3F4FA3014A195B090084F185E02D65
:101DF0000995E12CF12C03E09501A301B401CE017A
:101E00000E94040EDF91CF911F910F91FF90EF90F0
:101E1000DF90CF90BF90AF909F908F907F906F900A
:101E200008952F923F924F925F926F927F928F927E
:101E30009F92AF92BF92CF92DF92EF92FF920F9359
:101E40001F93CF93DF93CDB7DEB728970FB6F894E3
:101E5000DEBF0FBECDBF98878F833B014A013C8315
:101E60002B831E830D835701EE24FF24EA18FB0801
:101E7000EE0CFF1CC9018E0D9F1D9A8389832B01D7
:101E80004A0C5B1CAF81B885ED91FC9111970284DF
:101E9000F385E02D86019C01A401B201CD010995D5
:101EA0002D803E80280C391CAF81B885ED91FC91C6
:101EB0001197A101415051090284F385E02D298138
:101EC0003A81B201CD010995ED81FE81EE0EFF1E32
:101ED0008A0C9B1CAF81B885ED91FC911197008411
:101EE000F185E02D9701A401B301CD010995EB81A6
:101EF000FC816E0E7F1EAF81B885ED91FC9111972C
:101F0000B301615071090084F185E02D9701A401AE
:101F1000CD010995760101E09501A401B2018F81FF
:101F200098850E94070D6A187B08B1E06B1A71084A
:101F300002E09501A401B3018F8198850E94070DED
:101F400041018A189B08E1E08E1A910804E095018E
:101F5000A401B3018F8198850E94070D08E09501C7
:101F6000A401B2018F8198850E94070D28960FB6B3
:101F7000F894DEBF0FBECDBFDF91CF911F910F91BF
:101F8000FF90EF90DF90CF90BF90AF909F908F9099
:101F90007F906F905F904F903F902F9008952F9279
:101FA0003F924F925F926F927F928F929F92AF92E9
:101FB000BF92CF92DF92EF92FF920F931F93CF9336
:101FC000DF9300D000D000D0CDB7DEB75C017A83BC
:101FD00069833A013C832B834801FE82ED8226010E
:101FE0006701D194C194D108CC0CDD1C1B012E0CCF
:101FF0003F1CD501ED91FC912C0D3D1D0684F7850C
:10200000E02D7201B101C50109958C0C9D1CB1E058
:102010008B1A9108ED81FE816E0E7F1E69817A8197
:102020008B819C81680F791F6E1B7F0B615071093A
:102030006201740101E09F01A301C5010E94040E29
:1020400002E02D813E81A301B101C5010E94040E71
:1020500026960FB6F894DEBF0FBECDBFDF91CF91AD
:102060001F910F91FF90EF90DF90CF90BF90AF90B6
:102070009F908F907F906F905F904F903F902F90A8
:1020800008952F923F924F925F926F927F928F921C
:102090009F92AF92BF92CF92DF92EF92FF920F93F7
:1020A0001F93CF93DF9300D000D0CDB7DEB79C83D2
:1020B0008B831B012A0149013801FA82E982DC0184
:1020C000ED91FC910680F781E02D75010995AB81BA
:1020D000BC81ED91FC9111970680F781E02D86017E
:1020E00029813A81A301B401CD010995AB81BC815D
:1020F000ED91FC9111970680F781E02D820191010D
:10210000A60169817A81CD0109950F900F900F90FA
:102110000F90DF91CF911F910F91FF90EF90DF9083
:10212000CF90BF90AF909F908F907F906F905F9077
:102130004F903F902F9008952F923F924F925F9231
:102140006F927F928F929F92AF92BF92CF92DF92C7
:10215000EF92FF920F931F93CF93DF93CDB7DEB72C
:10216000AE970FB6F894DEBF0FBECDBF98878F83B2
:102170004B013A0129011EA70DA7B701DA82C982D6
:10218000BE8AAD8A041715074CF4872D38014DA778
:102190008EA7982D892D4901492E582E2DA53EA593
:1021A00049815A81421753075CF49DA58EA55EA70D
:1021B0004DA799838A83942D852D2B01692F782F24
:1021C0008DA59EA5861597055CF4962D872D6DA48B
:1021D0007EA49DA78EA7982D892D4201492E582EA9
:1021E000A981BA816A167B0619F5481459042CF0A6
:1021F000942D852D2401892E982E641575052CF0BB
:10220000861697060CF44B01B201AF81B885ED91AB
:10221000FC9111979401261B370B2F5F3F4F0284CF
:10222000F385E02D0D891E89A301CD01099552C1C9
:10223000C201881999092DA53EA526193709FB0168
:10224000E819F909FA87E98749815A814619570936
:102250005E874D87DB01A419B509BA8BA98BE9818B
:10226000FA814DA55EA5E41BF50BF88FEF8B698114
:102270007A814617570729F0415051095C8F4B8FDF
:1022800004C0ADA5BEA5BC8FAB8F1301A12CB12C92
:1022900065011B821C821D821E82A901662757FDD3
:1022A0006095762F4D8F5E8F6F8F78A32D853E853D
:1022B000442737FD4095542F29A33AA34BA35CA391
:1022C000AC01662757FD6095762F4DA35EA36FA3E3
:1022D00078A769857A85882777FD8095982F69A7E3
:1022E0007AA78BA79CA7EB8DFC8DE215F3050CF468
:1022F0004EC06B817C818D819E812D8D3E8D4F8D59
:1023000058A10E94D11E7401E20EF31EC601B50150
:1023100029A13AA14BA15CA10E94D11EB401620F78
:10232000731F8B819C81AD81BE812DA13EA14FA1E8
:1023300058A5820F931FA41FB51F8B839C83AD8369
:10234000BE8389A59AA5ABA5BCA5A80EB91ECA1EB9
:10235000DB1E6E157F052CF0962F872FB701E92E17
:10236000F82EAF81B885ED91FC9111979701261B4E
:10237000370B2F5F3F4F0284F385E02D0D891E89B7
:10238000A101CD010995BFEF2B1A3B0AACCF9101FA
:102390004DA55EA5241B350B69897A89629FC00112
:1023A000639F900D729F900D11249C01442737FD6F
:1023B0004095542F2B833C834D835E83C101861946
:1023C000970949855A85489F6001499FD00C589FBD
:1023D000D00C1124EE24D7FCE094FE2C6F89788D6C
:1023E000882777FD8095982F6F8B788F898F9A8FAC
:1023F0008D859E85AA2797FDA095BA2F8D879E87EC
:10240000AF87B88B29893A89442737FD4095542FE7
:10241000298B3A8B4B8B5C8B49855A85662757FDF8
:102420006095762F49875A876B877C87E981FA8187
:10243000E215F3050CF44EC06B817C818D819E8189
:102440002F89388D498D5A8D0E94D11E5201A20EBE
:10245000B31EC701B6012D853E854F8558890E9460
:10246000D11EB401620F731F8B819C81AD81BE812F
:1024700029893A894B895C89820F931FA41FB51F54
:102480008B839C83AD83BE8389859A85AB85BC8510
:10249000C80ED91EEA1EFB1E6A157B052CF0962F6E
:1024A000872FB501A92EB82EAF81B885ED91FC918B
:1024B00011979501261B370B2F5F3F4F0284F38541
:1024C000E02D0D891E89A101CD010995BFEF2B1AC1
:1024D0003B0AACCFAE960FB6F894DEBF0FBECDBFB1
:1024E000DF91CF911F910F91FF90EF90DF90CF90F0
:1024F000BF90AF909F908F907F906F905F904F9024
:102500003F902F9008952F923F924F925F926F923B
:102510007F928F929F92AF92BF92CF92DF92EF9273
:10252000FF920F931F93CF93DF93CDB7DEB728971A
:102530000FB6F894DEBF0FBECDBF5C011B015C83FC
:102540004B8329013701C801079697FD07969C0127
:10255000B3E035952795BA95E1F73A832983812C25
:10256000912CE12CF12CE614F7040CF048C01886ED
:102570001F82AB81BC81AE0DBF1DBE83AD832F8199
:102580003885201731079CF5EF81F885F7FD3796E0
:10259000A3E0F595E795AA95E1F7E80DF91DE40D9F
:1025A000F51DE491F0E08F81988587709927A0E868
:1025B000B0E002C0B595A7958A95E2F7EA23FB2320
:1025C000EF2B79F0D501ED91FC910480F581E02DA0
:1025D00096014D815E816F817885620D731DC50105
:1025E0000995EF81F8853196F887EF83C8CF3FEFE3
:1025F000E31AF30A89819A81880E991EB4CF28962E
:102600000FB6F894DEBF0FBECDBFDF91CF911F9103
:102610000F91FF90EF90DF90CF90BF90AF909F9081
:102620008F907F906F905F904F903F902F90089584
:102630002F923F924F925F926F927F928F929F92D2
:10264000AF92BF92CF92DF92EF92FF920F931F93C0
:10265000CF93DF93CDB7DEB72C970FB6F894DEBFDC
:102660000FBECDBF9C878B873A0118870F83FA86F0
:10267000E986CD82DC0118968D919C911997681797
:1026800079070CF094C01A968D919C911B9748176E
:1026900059070CF08CC08C2C912CCB01B6E0CB9E52
:1026A000800D911D1124181619060CF080C0C4016C
:1026B00053E0880F991F5A95E1F7860D971D18165C
:1026C00019060CF074C0F5E02F9F200111245B0166
:1026D0006B011C82920128573F4F2901461A570A65
:1026E0003C81353031F0F201EA0DFB1D44914B8302
:1026F00001C01B827A82698213011E828B8180FF56
:1027000013C0AB85BC85ED91FC91BD81B13031F436
:102710000480F581E02D2F81388519C00684F78566
:10272000E02DEF80F8841EC0E985FA852F81388579
:10273000E217F307F9F0AB85BC85ED91FC91BD8103
:10274000B13059F40480F581E02D29853A85A10145
:10275000B5018B859C8509950DC00684F785E02D14
:10276000E984FA848401940149815A81B6018B85F8
:102770009C850995EB81E695EB83FE81FF5FFE83E7
:1027800029813A81280D391D3A8329833FEF231A85
:10279000330AF83009F0B2CF4C814F5F4C83C80C3C
:1027A000D91C8FEFA81AB80A463009F099CF2C9699
:1027B0000FB6F894DEBF0FBECDBFDF91CF911F9152
:1027C0000F91FF90EF90DF90CF90BF90AF909F90D0
:1027D0008F907F906F905F904F903F902F900895D3
:1027E000CF92EF92FF920F931F93CF93DF93EC0161
:1027F000262F6A3049F42C898E859F8538E0239FE7
:10280000800D911D112432C06D30A1F1EA88FB8842
:10281000088919894E855F856C857D85CC880E94E5
:1028200018132C89422F50E08C859D8536E0239F1C
:10283000800D911D11249D878C872E892223D1F034
:102840006AEF64039001659F300D112468857985D6
:10285000260F371F281739076CF463E0440F551F04
:102860006A95E1F78E859F85840F951F9F878E87D8
:102870001D861C8681E090E0DF91CF911F910F9122
:10288000FF90EF90CF900895FC017587648757877C
:1028900046870895611101C061E0FC01648B0895D1
:1028A000FC01738B628B718B608B0895FC01718BC3
:1028B000608B538B428B0895FC016370658B848120
:1028C000958126813781613039F0633029F0918715
:1028D000808733872287089531872087938782876F
:1028E0000895FC01808591850895FC01828593857A
:1028F0000895FC0177FD68C0808591856817790788
:102900000CF062C057FD60C0828593854817590757
:102910000CF05AC08589823059F08330B1F0813093
:10292000D1F48FE290E0861B970BBA01AC0113C083
:1029300083E590E0FC01E61BF70BBF018FE290E01E
:10294000FC01E41BF50BAF0106C083E590E0841B9E
:10295000950BAB01BC0164357105B0F540335105F1
:1029600098F5CA01E3E095958795EA95E1F74770F8
:102970005527232BA1F024E5289FF001299FF00D76
:102980001124E60FF71FEC5FFE4F81E090E0042E6C
:1029900001C0880F0A94EAF79081982B14C024E5AF
:1029A000289FF001299FF00D1124E60FF71FEC5F1F
:1029B000FE4F81E090E0042E01C0880F0A94EAF7F0
:1029C00080959081982390830895CF92DF92EF9223
:1029D000FF920F931F93CF93DF931F92CDB7DEB774
:1029E0006C01162FF42E40E350E064E570E029837B
:1029F0000E94CB0B8AE493E0F60191838083F78AEF
:102A0000108F2981218FE28E038F0F90DF91CF915C
:102A10001F910F91FF90EF90DF90CF900895FC01F0
:102A200087898F3F21F481E0908D9F3F09F080E0FE
:102A300008950F931F93CF93DF931F92CDB7DEB707
:102A40008C0169830E940F156981882339F06EBD5E
:102A500000000DB407FEFDCF8EB52DC088E090E0DC
:102A600030E8D8015E96ED91FC915F974081919698
:102A70002C9191972095242320835C96ED91FC91D5
:102A80005D9790962C91432F462321F04081422B55
:102A9000408304C04081209524232083D8015E9682
:102AA000ED91FC915F97208191964C91242B20838E
:102AB00036950197B1F60F90DF91CF911F910F914D
:102AC00008951F93CF93DF93EC01162F60E0898D5B
:102AD0000E94E7178B8D18161CF460E00E94E71720
:102AE000612FCE010E9419158B8D181634F461E008
:102AF000DF91CF911F910C94E717DF91CF911F9138
:102B000008951F93CF93DF93EC01162F67FD1FE706
:102B100061E2CE010E946115612F6068CE010E94C2
:102B2000611560E2CE01DF91CF911F910C94611588
:102B3000DF92EF92FF920F931F93CF93DF93EC01FD
:102B4000F4E0EF2EF1E0FF2ED12C6D2D6064CE016C
:102B50000E94611560E8CE010E94611561E0898DD7
:102B60000E94E7178B8D18161CF460E00E94E7178F
:102B700000E010E0F701E00FF11F6081CE010E943C
:102B800019150F5F1F4F04351105A1F78B8D18160E
:102B90001CF461E00E94E717D39484E5E80EF11C71
:102BA00086E0D812D2CF60E4CE01DF91CF911F91A1
:102BB0000F91FF90EF90DF900C9461150F931F938E
:102BC000CF93DF93EC01162F042F0E940F1588235B
:102BD00079F00E947F168CB58C7F8CBD8DB58E7F71
:102BE0008DBD8CB5837F8CBD8CB58F7D8CBD34C085
:102BF00061E08F890E94AE1761E0888D0E94AE1758
:102C0000888D992787FD9095FC01E555FA4FE49151
:102C1000F0E0EE0FFF1FE154FA4F259134913F8F02
:102C20002E8FFC01E956FA4F849189A38F89992749
:102C300087FD9095FC01E555FA4FE491F0E0EE0F29
:102C4000FF1FE154FA4F259134913D8F2C8FFC01E9
:102C5000E956FA4F849188A361E0898D0E94AE17EE
:102C60008A8D18161CF461E00E94AE178B8D181621
:102C70001CF461E00E94AE178A8D18166CF460E0B7
:102C80000E94E71764EF71E080E090E00E94221755
:102C900061E08A8D0E94E71761E2CE010E94611512
:102CA000602F6061CE010E94611517FD1FE7612F43
:102CB0006068CE010E94611560E2CE010E9461153C
:102CC0006CE0CE010E946115CE01DF91CF911F9182
:102CD0000F910C94981528EF31E0E4E0F1E0DF016A
:102CE000A9011D9241505040E1F7DC011D961C9254
:102CF0001E921C971F961C921E921E970895CF93AA
:102D0000CFB7F89480919F03811127C0E5EBF5E0E0
:102D10008491E1EAF5E09491E82FF0E0EE0FFF1FD7
:102D2000E753FA4FA591B4918C91892321F461E086
:102D30008AE00E94E71761E08AE00E94AE178CB536
:102D400080618CBD8CB580648CBD61E08DE00E949B
:102D5000AE1761E08BE00E94AE1780919F038F5FFA
:102D600080939F03CFBFCF9108951F920F920FB60C
:102D70000F9211242F933F938F939F93AF93BF9301
:102D80008091A1039091A203A091A303B091A40309
:102D90003091A00323E0230F2D3720F40196A11DCD
:102DA000B11D05C026E8230F0296A11DB11D209379
:102DB000A0038093A1039093A203A093A303B093D5
:102DC000A4038091A5039091A603A091A703B091BD
:102DD000A8030196A11DB11D8093A5039093A6039E
:102DE000A093A703B093A803BF91AF919F918F9138
:102DF0003F912F910F900FBE0F901F9018953FB7E6
:102E0000F8948091A5039091A603A091A703B09197
:102E1000A80326B5A89B05C02F3F19F00196A11D58
:102E2000B11D3FBF6627782F892F9A2F620F711D22
:102E3000811D911D42E0660F771F881F991F4A95DB
:102E4000D1F70895CF92DF92EF92FF92CF93DF9365
:102E50006B017C010E94FF16EB01C114D104E10457
:102E6000F10489F00E948F1C0E94FF166C1B7D0BE1
:102E7000683E734090F381E0C81AD108E108F10878
:102E8000C851DC4FEACFDF91CF91FF90EF90DF90F8
:102E9000CF900895789484B5826084BD84B58160B4
:102EA00084BD85B5826085BD85B5816085BDEEE652
:102EB000F0E0808181608083E1E8F0E01082808131
:102EC00082608083808181608083E0E8F0E080819F
:102ED00081608083E1EBF0E0808184608083E0EBBF
:102EE000F0E0808181608083EAE7F0E080818460A7
:102EF0008083808182608083808181608083808103
:102F0000806880831092C1000895833081F028F496
:102F1000813099F08230A1F008958730A9F088308F
:102F2000B9F08430D1F4809180008F7D03C080910E
:102F300080008F7780938000089584B58F7702C0DA
:102F400084B58F7D84BD08958091B0008F7703C0D4
:102F50008091B0008F7D8093B0000895CF93DF9370
:102F600090E0FC01E956FA4F2491FC01E555FA4F37
:102F70008491882349F190E0880F991FFC01E75361
:102F8000FA4FA591B49181549A4FFC01C591D49107
:102F90009FB7611108C0F8948C91209582238C937F
:102FA000888182230AC0623051F4F8948C91322FC8
:102FB000309583238C938881822B888304C0F89476
:102FC0008C91822B8C939FBFDF91CF9108950F93AB
:102FD0001F93CF93DF931F92CDB7DEB7282F30E03A
:102FE000F901ED57FA4F8491F901E956FA4F14911E
:102FF000F901E555FA4F04910023C9F0882321F027
:1030000069830E9485176981E02FF0E0EE0FFF1FB2
:10301000E154FA4FA591B4919FB7F8948C91611146
:1030200003C01095812301C0812B8C939FBF0F900B
:10303000DF91CF911F910F9108950E946D1FFC01A8
:10304000818D228D90E0805C9F4F821B91098F7350
:1030500099270895FC01918D828D981731F0828D0A
:10306000E80FF11D858D90E008958FEF9FEF089593
:10307000FC01918D828D981761F0828DDF01A80F80
:10308000B11D5D968C91928D9F5F9F73928F90E0A2
:1030900008958FEF9FEF08958CEB99E1892B49F00C
:1030A00080E090E0892B29F00E94BC1981110C94DA
:1030B00000000895FC01848DDF01A80FB11DA35A03
:1030C000BF4F2C91848D90E001968F739927848F48
:1030D000A689B7892C93A089B1898C9180648C933F
:1030E000938D848D981306C00288F389E02D80812A
:1030F0008F7D80830895CF93DF93EC01888D8823A3
:10310000C9F0EA89FB89808185FD05C0A889B98954
:103110008C9186FD0FC00FB607FCF5CF808185FF2F
:10312000F2CFA889B9898C9185FFEDCFCE010E949D
:103130005A18E7CFDF91CF910895CF92DF92FF9297
:103140000F931F93CF93DF931F92CDB7DEB76C0120
:10315000DC015B969C915B975C968C915C979813D5
:1031600007C05096ED91FC915197808185FD32C04A
:10317000F601038D10E00F5F1F4F0F731127F02E24
:10318000F601848DF81211C00FB607FCF9CFD601F5
:103190005096ED91FC915197808185FFF1CFC6014A
:1031A00069830E945A186981EBCF838DE80FF11D66
:1031B000E35AFF4F6083D6015B960C935B97529660
:1031C000ED91FC91539780818062808381E05896D5
:1031D0008C930DC0D6015696ED91FC915797608364
:1031E0005096ED91FC91519780818064808381E0BD
:1031F00090E00F90DF91CF911F910F91FF90DF90A2
:10320000CF900895BF92CF92DF92EF92FF92CF932B
:10321000DF93EC016A017B01B22EE889F98982E033
:103220008083411581EE580761057105A1F060E0CA
:1032300079E08DE390E0A70196010E94AF1E215036
:10324000310941095109569547953795279521151B
:1032500080E1380798F0E889F989108260E874E81D
:103260008EE190E0A70196010E94AF1E2150310926
:10327000410951095695479537952795EC85FD8568
:103280003083EE85FF852083188EEC89FD89B0821E
:10329000EA89FB89808180618083EA89FB8980815A
:1032A00088608083EA89FB89808180688083EA89DD
:1032B000FB8980818F7D8083DF91CF91FF90EF909C
:1032C000DF90CF90BF9008951F920F920FB60F928C
:1032D00011242F938F939F93EF93FF93E091B90362
:1032E000F091BA038081E091BF03F091C00382FDA9
:1032F00012C090818091C2038F5F8F732091C303AE
:10330000821751F0E091C203F0E0E755FC4F958F32
:103310008093C20301C08081FF91EF919F918F91B3
:103320002F910F900FBE0F901F9018951F920F9224
:103330000FB60F9211242F933F934F935F936F9388
:103340007F938F939F93AF93BF93EF93FF9389EAFC
:1033500093E00E945A18FF91EF91BF91AF919F9116
:103360008F917F916F915F914F913F912F910F902E
:103370000FBE0F901F90189589EA93E00E941F18C6
:1033800021E0892B09F420E0822F08951092AC03EC
:103390001092AB0388EE93E0A0E0B0E08093AD0321
:1033A0009093AE03A093AF03B093B00382E693E093
:1033B0009093AA038093A90385EC90E09093B603C1
:1033C0008093B50384EC90E09093B8038093B703A7
:1033D00080EC90E09093BA038093B90381EC90E085
:1033E0009093BC038093BB0382EC90E09093BE0368
:1033F0008093BD0386EC90E09093C0038093BF035D
:103400001092C2031092C3031092C4031092C5031A
:10341000089508950E944A170E94091A0E943C0AC2
:10342000CCE4D8E10E94400A2097E1F30E944C18B6
:10343000F9CFCF92DF92EF92FF920F931F93CF932A
:10344000DF936C017A01EB01E60EF71E00E010E05D
:10345000CE15DF0561F06991D601ED91FC910190E7
:10346000F081E02DC6010995080F191FF1CFC801A1
:10347000DF91CF911F910F91FF90EF90DF90CF9050
:1034800008956115710581F0DB010D900020E9F7C9
:10349000AD0141505109461B570BDC01ED91FC91E8
:1034A0000280F381E02D099480E090E008950C946F
:1034B000411ADC01ED91FC910190F081E02D09941D
:1034C0000F931F93CF93DF93EC016DE00E94591A85
:1034D0008C016AE0CE010E94591A800F911FDF9182
:1034E000CF911F910F9108950F931F93CF93DF9367
:1034F000EC010E94411A8C01CE010E94601A800FDB
:10350000911FDF91CF911F910F9108958F929F92FC
:10351000AF92BF92CF92DF92EF92FF920F931F93E1
:10352000CF93DF93CDB7DEB7A1970FB6F894DEBF88
:103530000FBECDBF7C01C42EE52FCB01D22E19A228
:1035400021E02D1510F02AE0D22E8E010F5D1F4FC5
:103550008D2C912CA12CB12C6C2D7E2FA5019401CA
:103560000E94AF1E8C2DD29E80191124015011098A
:103570008A3014F4805D01C0895CF80180832115D4
:1035800031054105510521F0C22EE32FCA01E4CFD8
:10359000B801C7010E94411AA1960FB6F894DEBF88
:1035A0000FBECDBFDF91CF911F910F91FF90EF9094
:1035B000DF90CF90BF90AF909F908F900895CF9263
:1035C000DF92EF92FF920F931F93CF93DF93EC0163
:1035D0006A017B012115310579F4E881F9810190B7
:1035E000F081E02D642FDF91CF911F910F91FF901B
:1035F000EF90DF90CF9009942A303105E9F477FFFE
:103600001AC06DE20E94591A8C0144275527BA014D
:103610004C195D096E097F092AE0CE010E94861AC5
:10362000800F911FDF91CF911F910F91FF90EF902D
:10363000DF90CF9008952AE0B701A601CE01DF9177
:10364000CF911F910F91FF90EF90DF90CF900C944E
:10365000861A2115310541F4DC01ED91FC910190B0
:10366000F081E02D642F09940C94861A9A01462F5C
:1036700050E060E070E00C94291B0F931F93CF93F0
:10368000DF93EC019A01462F50E060E070E00E9469
:10369000291B8C01CE010E94601A800F911FDF91BF
:1036A000CF911F910F9108950F931F93CF93DF93A5
:1036B000EC010E94291B8C01CE010E94601A800F30
:1036C000911FDF91CF911F910F9108954F925F92BB
:1036D0006F927F928F929F92AF92BF92CF92DF9222
:1036E000EF92FF920F931F93CF93DF93EC016A0148
:1036F0007B01B22E9A01AB01C701B6010E94AB1E3D
:10370000882319F06EE673E027C026013701E8949C
:1037100077F82FEF3FEF4FE75FE7C301B2010E9459
:10372000AB1E81110DC02FEF3FEF4FE75FE7C301E5
:10373000B2010E94F51C18161CF462E773E00CC07D
:103740002FEF3FEF4FE75FE4C701B6010E94441E31
:103750001816ACF466E773E0CE01DF91CF911F91AC
:103760000F91FF90EF90DF90CF90BF90AF909F9020
:103770008F907F906F905F904F900C94411A2FEF35
:103780003FEF4FE75FECC701B6010E94F51C87FDD4
:10379000E1CF20E030E0A901C701B6010E94F51C8D
:1037A00087FF0AC06DE2CE010E94591A8C01F7FA18
:1037B000F094F7F8F09402C000E010E0A12C60E073
:1037C00070E080E09FE3AB1441F020E030E040E2A5
:1037D00051E40E94F91CA394F6CF9B01AC01C701F0
:1037E000B6010E94911C6B017C010E94661D2B0199
:1037F0003C010E94921D9B01AC01C701B6010E94D1
:10380000901C6B017C012AE0B301A201CE010E9451
:10381000861A080F191FBB2039F06AE773E0CE0142
:103820000E94411A080F191F7B2C772041F120E0DC
:1038300030E040E251E4C701B6010E94481E6B012E
:103840007C010E94611D4B01AA2497FCA094BA2C14
:103850002AE030E0B501A401CE010E94DF1A080F72
:10386000191FC501B4010E94941D9B01AC01C70141
:10387000B6010E94901C6B017C017A94D6CFC801DE
:10388000DF91CF911F910F91FF90EF90DF90CF903C
:10389000BF90AF909F908F907F906F905F904F9070
:1038A00008950F931F93CF93DF93EC010E94661B43
:1038B0008C01CE010E94601A800F911FDF91CF9181
:1038C0001F910F910895009729F0BC0180E090E0CE
:1038D0000C94641F0895CF93DF9300D000D0CDB730
:1038E000DEB79B01AC01611571058105910569F099
:1038F00069833A834B835C830E945F1F29813A81ED
:103900004B815C810E94D11E03C060E070E0CB015E
:103910000F900F900F900F90DF91CF910895089521
:103920005058BB27AA270ED075C166D130F06BD195
:1039300020F031F49F3F11F41EF45BC10EF4E095CA
:10394000E7FB51C1E92F77D180F3BA1762077307FC
:103950008407950718F071F49EF58FC10EF4E09579
:103960000B2EBA2FA02D0B01B90190010C01CA0139
:10397000A0011124FF27591B99F0593F50F4503EE4
:1039800068F11A16F040A22F232F342F4427585FD6
:10399000F3CF469537952795A795F0405395C9F7EE
:1039A0007EF41F16BA0B620B730B840BBAF09150A6
:1039B000A1F0FF0FBB1F661F771F881FC2F70EC045
:1039C000BA0F621F731F841F48F487957795679518
:1039D000B795F7959E3F08F0B3CF9395880F08F001
:1039E0009927EE0F979587950895D9D008F481E02F
:1039F00008950CD00FC107D140F0FED030F021F473
:103A00005F3F19F0F0C0511139C1F3C014D198F3E0
:103A10009923C9F35523B1F3951B550BBB27AA274F
:103A200062177307840738F09F5F5F4F220F331FC1
:103A3000441FAA1FA9F333D00E2E3AF0E0E830D08D
:103A400091505040E695001CCAF729D0FE2F27D090
:103A5000660F771F881FBB1F261737074807AB075E
:103A6000B0E809F0BB0B802DBF01FF2793585F4FD3
:103A70002AF09E3F510568F0B6C000C15F3FECF3ED
:103A8000983EDCF3869577956795B795F7959F5F98
:103A9000C9F7880F911D9695879597F90895E1E0EC
:103AA000660F771F881FBB1F621773078407BA074B
:103AB00020F0621B730B840BBA0BEE1F88F7E095A6
:103AC000089504D06894B111D9C00895BCD088F08D
:103AD0009F5790F0B92F9927B751A0F0D1F0660FFA
:103AE000771F881F991F1AF0BA95C9F712C0B13015
:103AF00081F0C3D0B1E00895C0C0672F782F882728
:103B0000B85F39F0B93FCCF3869577956795B39553
:103B1000D9F73EF490958095709561957F4F8F4FC2
:103B20009F4F0895E89409C097FB3EF490958095C7
:103B3000709561957F4F8F4F9F4F9923A9F0F92F73
:103B400096E9BB279395F695879577956795B795F1
:103B5000F111F8CFFAF4BB0F11F460FF1BC06F5FD7
:103B60007F4F8F4F9F4F16C0882311F096E911C0E9
:103B7000772321F09EE8872F762F05C0662371F00A
:103B800096E8862F70E060E02AF09A95660F771F1E
:103B9000881FDAF7880F9695879597F90895990FFA
:103BA0000008550FAA0BE0E8FEEF16161706E80707
:103BB000F907C0F012161306E407F50798F0621B28
:103BC000730B840B950B39F40A2661F0232B242BFD
:103BD000252B21F408950A2609F4A140A6958FEF1C
:103BE000811D811D089597F99F6780E870E060E06E
:103BF00008959FEF80EC089500240A941616170686
:103C000018060906089500240A94121613061406CD
:103C100005060895092E0394000C11F4882352F030
:103C2000BB0F40F4BF2B11F460FF04C06F5F7F4FE8
:103C30008F4F9F4F089557FD9058440F551F59F0CF
:103C40005F3F71F04795880F97FB991F61F09F3F89
:103C500079F087950895121613061406551FF2CFB2
:103C60004695F1DF08C0161617061806991FF1CF02
:103C700086957105610508940895E894BB27662729
:103C80007727CB0197F908958ADF08F48FEF08951D
:103C90000BD0C0CFB1DF28F0B6DF18F0952309F0C4
:103CA000A2CFA7CF1124EACFC6DFA0F3959FD1F30F
:103CB000950F50E0551F629FF001729FBB27F00DDA
:103CC000B11D639FAA27F00DB11DAA1F649F66272F
:103CD000B00DA11D661F829F2227B00DA11D621F7E
:103CE000739FB00DA11D621F839FA00D611D221F38
:103CF000749F3327A00D611D231F849F600D211D1C
:103D0000822F762F6A2F11249F5750408AF0E1F0BE
:103D100088234AF0EE0FFF1FBB1F661F771F881F07
:103D200091505040A9F79E3F510570F05CCFA6CF4F
:103D30005F3FECF3983EDCF3869577956795B795F2
:103D4000F795E7959F5FC1F7FE2B880F911D96951C
:103D5000879597F9089523DF880B990B0895A1E2C1
:103D60001A2EAA1BBB1BFD010DC0AA1FBB1FEE1FF5
:103D7000FF1FA217B307E407F50720F0A21BB30B40
:103D8000E40BF50B661F771F881F991F1A9469F7BC
:103D900060957095809590959B01AC01BD01CF0118
:103DA0000895052E97FB1EF400940E94E81E57FD0F
:103DB00007D00E94AF1E07FC03D04EF40C94E81EFF
:103DC00050954095309521953F4F4F4F5F4F089547
:103DD00090958095709561957F4F8F4F9F4F089577
:103DE0000E94011FA59F900DB49F900DA49F800D70
:103DF000911D11240895EE0FFF1F0590F491E02D01
:103E00000994A29FB001B39FC001A39F700D811DB3
:103E10001124911DB29F700D811D1124911D0895D3
:103E20008F929F92AF92BF92CF92DF92EF92FF92CA
:103E3000CF93DF93EC01688179818A819B81611541
:103E400071058105910521F464E279ED8BE597E038
:103E50002DE133EF41E050E00E94D11E49015A01AB
:103E60009B01AC01A7EAB1E40E94F01E6B017C014A
:103E7000ACEEB4EFA50194010E94751FC60ED71ECB
:103E8000E81EF91EF7FE06C081E0C81AD108E10855
:103E900080E8F80AC882D982EA82FB82C701B601AB
:103EA0009F77DF91CF91FF90EF90DF90CF90BF9001
:103EB000AF909F908F9008950E94101F089580E00A
:103EC00091E00E94101F089560930001709301011A
:103ED0008093020190930301089581E090E0F894AB
:103EE0000C947A1FB7FF0C94F01E0E94F01E821BE8
:083EF000930B0895F894FFCF35
:103EF80001000000000000000000000000000000B9
:103F080000000000000000000000000000000000A9
:103F180000000000000000000000C0E0F0F8FCFC19
:103F2800FEFFFCE0000000000000000000000000B0
:103F38000000000000000000000000000000000079
:103F48000000000000000000000000000000000069
:103F5800000000000000000000F8F8F8F8F8F8F891
:103F6800F8F8F8F8F8F0F0E0E0C080C0FCFFFFFFD8
:103F7800FF7F3F7FFFFFFFFFFF0000000000000002
:103F88000000000000000000000000000000000029
:103F98000000000000000000000000000000000019
:103FA80000000000000000000000000000000F1FDB
:103FB8003F7FFFFFFFFFFFFFFFFFE7C7C7878F9F19
:103FC8009FFFFFFFC1C0E0FCFFFFFFFFFFFCFCFC01
:103FD800FCFEFEFEFCFCF8F8F0E0C0C000000000AB
:103FE80000000000000000000000000000000000C9
:103FF80000000000000000000000000000000000B9
:10400800000000000080C0E0F1FBFFFFFFFFFF7F22
:104018001F0F0F87E7FFFFFF1F1F3FF9F8F8F8F89A
:10402800F8F8FDFFFFFFFFFFFFFFFFFF7F3F0F07D0
:104038000100000000000000000000000000000077
:104048000000000000000000000000000000000068
:1040580000000000000000F0FEFFFFFFFFFFFFFF71
:10406800FFFFFFFE7E3F3F0F1FFFFFFFFCF0E0F169
:10407800FFFFFFFFFFFCF001010101010101010049
:104088000000000000000000000000000000000028
:104098000000000000000000000000000000000018
:1040A80000000000000000000000000303030303F9
:1040B8000303030101010100000000000000030FD9
:1040C8001F3F7F7FFFFFFFFF7F7F1F030000000070
:1040D80000000000000000000000000000000000D8
:1040E800000000000000000000000000783A2000F6
:1040F80020793A20002064793A200048656C6C6F7A
:104108002C20776F726C642100307800526F7461D4
:1041180074696F6E004578616D706C6521000000F0
:104128000000F013191A1D18440A4A0B610BFB0A08
:10413800770BAC0BCA0B00000000F013191A7914A6
:10414800440A4A0B610BFB0A770BAC0BCA0B000045
:1041580000009D18191A1F1838182A187B186E6144
:0C4168006E00696E66006F7666002E0027
:00000001FF
